:020000042001D9
:10780000554D4F440001010003000000000000003E
:107810004B780120B178012047780120437801207E
:10782000017B0120000000000000000000000000BB
:107830000000000000000000000000000000000048
:1078400070477047704770477047104B104A2DE9DA
:10785000F041884607460021934202D003F8011FF9
:10786000FAE70C4B0C4CE41AA41000251E46A54266
:1078700005D056F8253003B198470135F7E7414662
:10788000384600F00BF8BDE8F08100BF677B0120AF
:10789000777B01204078012040780120034B4FF096
:1078A0007E521A6001225A60704700BF687B012037
:1078B0002DE9F0410C461D460746904600F04EF972
:1078C000069BDFED8C6ADFED8C5A04EBC3018B4B1A
:1078D0005E68F2EE043AB7EE003AB0EE666AB0EED9
:1078E000665AF0EE654A8C4280F00181D3ED007A51
:1078F000B8EC014AB0EE437AA7EEA37AF0EE477AED
:10790000B7EC017A27EE877A67EE847A032EEAD8FD
:10791000DFE806F0023964A437EE264A0435B5EEF6
:10792000C04AF1EE10FAB8BFB0EE657A37EE464ABB
:107930000434B5EE404AF1EE10FAA8BFB0EE667A14
:1079400027EE074A27EE444AA4EE067A04ED017AB0
:1079500037EE867AB5EEC07AF1EE10FAB8BFF0EEE7
:10796000657A37EEC67AB5EE407AF1EE10FAA8BF26
:10797000F0EE667A27EEA77A27EEC77AE7EE067A68
:1079800045ED017AAFE737EE264A0435B5EEC04A39
:10799000F1EE10FAB8BFB0EE657A37EE464A04341D
:1079A000B5EE404AF1EE10FAA8BFB0EE667A04EDEB
:1079B000017A37EE867AB5EEC07AF1EE10FAB8BFEA
:1079C000F0EE657A37EEC67AB5EE407AF1EE10FA4F
:1079D000A8BFF0EE667A45ED017A84E7221DB4EE89
:1079E000E67AF1EE10FA04D8B4EEE57AF1EE10FA88
:1079F00013DAB4EEC67AF1EE10FA04DD37EE667AE9
:107A000037EE667AEBE7B4EEE57AF1EE10FAE6D5FA
:107A100037EE267A37EE267AE1E784ED007A281DE4
:107A2000F4EEC57AF1EE10FA04D8F4EEE47AF1EE51
:107A300010FA57DAF4EEC57AF1EE10FA04DD77EEBB
:107A4000E67A77EEE67AEBE7F4EEE47AF1EE10FA16
:107A5000E6D577EEA67A77EEA67AE1E7221DB4EEB8
:107A6000E67AF1EE10FA04D8B4EEE57AF1EE10FA07
:107A700015DAB4EEC67AF1EE10FA04DD36EEC77A06
:107A800037EE267AEBE7B4EEE57AF1EE10FAE6D5BA
:107A9000B1EE477A37EE667A37EE667ADFE784ED45
:107AA000007A281DF4EEC57AF1EE10FA04D8F4EE4F
:107AB000E47AF1EE10FA15DAF4EEC57AF1EE10FA86
:107AC00004DD76EEE77A77EEA67AEBE7F4EEE47A79
:107AD000F1EE10FAE6D5F1EE677A77EEE67A77EE18
:107AE000E67ADFE7C5ED007A14460546FBE6BDE819
:107AF000F08100BF9A99193E9A9919BE687B0120BE
:107B000007EE901AFAEEE07A10B101281FD0704704
:107B1000B5EE007AF4EEC77AF1EE10FA0E4B01D50D
:107B200058607047B6EE007AF4EEC77AF1EE10FABC
:107B300002D501225A607047B6EE087AF4EEC77A91
:107B4000F1EE10FA4CBF022203225A607047024B3A
:107B5000C3ED007A704700BF687B01205FF800F03A
:047B60008DCA0708BB
:040000052001784B13
:00000001FF
