:020000042000DA
:10000000554F5343000101000300000000000000B1
:100010004F000020BD000020710300208903002054
:1000200043000020450000208B030020000000005A
:1000300000000000000000000000000000000000C0
:100040007047704770477047704770477047104B54
:10005000104A2DE9F041884607460021934202D01C
:1000600003F8011FFAE70C4B0C4CE41AA41000250E
:100070001E46A54205D056F8253003B198470135F4
:10008000F7E74146384600F00BF8BDE8F08100BFC5
:10009000F70300202704002040000020400000203B
:1000A000054B00225A609A601A605A61DA601A6140
:1000B0009A61DA611A627047F8030020F0B52DEDFD
:1000C000048BA14BA14E93F82C709FEDA17A9FED6C
:1000D000A14A93ED085A93ED032AD3ED063AD3EDE6
:1000E000070A002483F82C4084882512962DE4B258
:1000F00006EE904AD4BF2C46972406EB8404D4ED38
:10010000007A6C1CE4B2962C94BFA6464FF0970E72
:1001100006EB8E0EF8EEE66A9EED006A66EE876AE2
:1001200036EE676A9FED8C7AE6EE867AB6EE006A66
:10013000F4EEC77AF1EE10FAA8BFF0EE477A972DE9
:10014000A8BF9725972C28BF972467EE847A06EBE3
:10015000850506EB840467EE867AD4ED005A95EDAA
:10016000006AC3ED017A75EEC65AA5EEA66AD3ED14
:10017000045AB4EEC76AF1EE10FAB8BFB0EE467A90
:1001800027EE047A17F0010727EE057A08BF93EDF2
:10019000056A83ED027A77EEC77A18BF9FED6F6A22
:1001A000A5EEA77AD0ED007A83ED007AFAEEE07A38
:1001B000F0EE476AC3ED097A1FB9634890ED0A5A19
:1001C00001E0B0EE675A07EE102A77EEC57AB8EE76
:1001D000477A9FED633A634C9FED608A9FED621A08
:1001E000DFED621AC7EE872A01EB82022546B0EEE8
:1001F000430AF7EE004AFFEE008A914200F09A802F
:10020000FCEEC67AF8EE677A76EE677A67EE837A66
:10021000BCEEE77A17EE106A06F07F0009EE106A6E
:1002200004EB80070130B8EE499A00F07F0004EB40
:10023000800097ED007A77EEC97A90ED009A39EE5A
:10024000479A7F2EA7EE897AF0EE477A88BFF1EEC3
:10025000477A63EEA77AB0EE487AA3EEA77A77EEF4
:10026000067AF5EEC07AF1EE10FA89BFBCEEE77AB5
:1002700074EEE77AB8EE477A77EEC77ABCEEE77AA3
:10028000B8EE477A77EEC77A27EE807AFCEEC77A27
:1002900017EE906A06F07F0009EE106A05EB800702
:1002A0000130B8EE499A00F07F0005EB8000D7EDF1
:1002B000007A37EE497A90ED009A39EE679A7F2EF0
:1002C000E7EE097A88BFF1EE677A60EEA77AF4EE7E
:1002D000E87AF1EE10FA07DBF4EEE47AF1EE10FAC8
:1002E000A8BFF0EE647A01E0FFEE007A27EEA77A6D
:1002F00036EE266A27EEC77A35EE225AE7EE017A05
:1003000067EEA17AFDEEE77AE1EC017AFCEEC67ABF
:10031000F8EE677A36EE676AF3EE047AE2EE677A11
:10032000E7EE845AF4EE645AF1EE10FAA8BFF0EE4C
:10033000645A62E7BDEC048BC3ED045A83ED056A91
:1003400083ED0A5AF0BD00BFF803002000F1000859
:100350008180803B3EC3AE3749FFB84600000000B5
:1003600000008043DC2B0108CDCC4C3D0000004F49
:10037000044B93F82C2042F0010283F82C20002239
:100380001A617047F8030020704707EE901A9FED3E
:10039000167AF8EEE77A67EE877A072822D8DFE840
:1003A00000F0040C21212121161AB7EE007A77EE15
:1003B000877A0E4BC3ED077A7047B7EE007AF3EEFB
:1003C000086AA7EEA67A094B83ED087A7047074BB7
:1003D000C3ED037A70479FED067A044B67EE877A88
:1003E000C3ED067A704700BF0820803AF80300206A
:0403F0003333333F31
:040000052000004F88
:00000001FF
