:020000042000DA
:10000000554F5343000101000300000000000000B1
:100010004F000020C50000204503002059030020A8
:1000200043000020450000205B030020000000008A
:1000300000000000000000000000000000000000C0
:100040007047704770477047704770477047104B54
:10005000104A2DE9F041884607460021934202D01C
:1000600003F8011FFAE70C4B0C4CE41AA41000250E
:100070001E46A54205D056F8253003B198470135F4
:10008000F7E74146384600F00BF8BDE8F08100BFC5
:10009000B7030020DF0300204000002040000020C4
:1000A000074B00221A605A609A60DA604FF07E5166
:1000B0005A61DA619A610022196183F82020704741
:1000C000B8030020F0B52DED028B944B944E93F8BD
:1000D00020709FED947A9FED945AD3ED041A00247A
:1000E00083F8204084882512962DE4B207EE904ACA
:1000F000D4BF2C46972406EB8404D4ED006A6C1C14
:10010000E4B2962C94BFA6464FF0970EF8EEE77A2D
:1001100006EB8E0E67EE877A9EED007A37EE667AF2
:10012000E7EE876A9FED817AF4EEC76AF1EE10FA86
:10013000A8BFF0EE476A972DA8BF9725972C28BF38
:10014000972406EB850506EB8404D5ED005A94ED63
:10015000006A36EE656A66EE856AE6EE275AD0EDED
:10016000007AC3ED006AF4EEC75AF1EE10FAB8BF98
:10017000B0EE657A17F0010767EE055AFAEEE07AFD
:1001800018BF9FED6B7AC3ED015A04BF93ED027A5D
:1001900093ED035AC3ED067A18BFB0EE475A1FB964
:1001A0005E48D0ED074A01E0F0EE674A06EE102AFD
:1001B00077EEE47AB8EE466A9FED5E4A5E4D9FEDBB
:1001C0005F2ADFED5F2A87EE863A01EB82022E4638
:1001D000B0EE441AFFEE000AF7EE003A914200F04A
:1001E0009080BCEEC76AB8EE466A37EE466A26EEE5
:1001F000046AFCEEC67A17EE904A7F2C00EE104A95
:1002000087BF04F07F00C0F18007601C274688BFCD
:10021000C0F17F00B8EE400A05EB800005EB8707D0
:10022000D7ED007A36EE406A90ED000A30EE670AAC
:1002300098BFB7EE008AE6EE007ABCEEC56A88BFCA
:10024000BFEE008AB8EE466A67EE887A35EE466AF7
:1002500026EE016ABCEEC60A10EE104A7F2C87BF5C
:1002600004F07F00C0F18007601C274688BFC0F102
:100270007F00B8EE400A06EB870706EB800097ED9B
:10028000008A36EE406A90ED000A30EE480A98BFC8
:10029000F7EE008AA6EE008A88BFFFEE008AE8EE3D
:1002A000287A67EEA17AF4EEE07AF1EE10FA07DB35
:1002B000F4EEE37AF1EE10FAA8BFF0EE637A01E013
:1002C000FFEE007A27EEA76A37EE267A27EEC66A97
:1002D00035EE255AE6EE027A74EE834A67EEA27A8C
:1002E000FDEEE77AE1EC017AFCEEC77AF8EE677A88
:1002F00037EE677AFCEEC77AF8EE677A35EE675A22
:100300006CE7BDEC028BD3ED097A83ED027A37EE10
:10031000855AC3ED074A83ED035AF0BDB8030020A8
:1003200000F100088180803B3EC3AE3749FFB846EC
:100330000000000000008043B81D0108CDCC4C3DFA
:100340000000004F034A92F8203043F0010382F886
:1003500020307047B8030020704707EE901A9FEDD9
:10036000117AF8EEE77A062867EE877A0AD007282E
:1003700010D0B0B99FED0C7A0C4B67EE877AC3EDC5
:10038000097A70479FED0A7A084B67EE877AC3EDCA
:10039000057A7047B7EE007A77EE877A034BC3EDA4
:1003A000047A70470820803ACDCCCC3DB8030020B9
:0403B0009A99993E3F
:040000052000004F88
:00000001FF
